:1000000066EF04F00C416E3A2025660A43763A20EA
:1000100025660000EA6A200EE96EEF500EE0010E40
:10002000016E006A002EFED7012EFBD74A0E006E2D
:10003000002EFED700D0EF2EF2D7000C21B002D058
:100040008B9401D08B84949421B202D08B9A01D0EE
:100050008B8A949A21B402D08B9C01D08B8C949C77
:1000600021B602D08B9E01D08B8E949E94928B826F
:1000700094928B92000C94908B901E5202E18B9084
:1000800001D08B809490210E006E002EFED79492AA
:100090008B921F38206E0F0E201620C021F0CEDF6D
:1000A0001F500F0B206E216EC9DF010E206EB2DFD4
:1000B000000C94908B9094928B9294948B94949A3D
:1000C0008B9A949C8B9C949E8B9E0F0E206EA2DF2D
:1000D000010E0D6E0D50030808E3030E216EAEDF16
:1000E000050E206E97DF0D2AF5D7020E216EA6DFD2
:1000F0001E6A280E1F6EBFDF1E6A0C0E1F6EBBDF4E
:100100001E6A010E1F6EB7DF1E6A060E1F6EB3DF7A
:10011000050E206E7FDF87EF04F08E0E006E0EC09E
:1001200001F00DC002F0036A015209E102C001F0C2
:10013000026A080E005E015202E1006A08D0D890FF
:1001400001BE04D0023601360006F9D7019E97EFB2
:1001500004F0800ED8B2121A176A186A0EC016F090
:100160001250161A0D50D8B4DCD0156E006E115016
:10017000D8B4E0D0155ED8B481D03DE312C01BF0F6
:100180001B8E13C01AF014C019F0186AD8901B32D5
:100190001A3219321832152EF8D716AE03D017803E
:1001A000DDD0179015901788EA6A100EE96EE9D035
:1001B000179816BE0AD015A013D01B321A32193266
:1001C0001832002AD8B4C5D00BD01BBE0CD0D890A2
:1001D000183619361A361B360006D8B4BAD0F5D7F9
:1001E000178C6BD0179C0EC016F00EAE02D01B8E73
:1001F000A9D01B9EA7D011C015F011C000F00D5062
:10020000155E0EC01BF01B8E0FC01AF010C019F047
:10021000186AD8901B321A3219321832152EF8D7B4
:1002200016AE03D017829AD017921590178AEA6AF1
:10023000140EE96EA6D0179A16BE0AD015A013D0D8
:100240001B321A3219321832002AD8B482D00BD09D
:100250001BBE0CD0D890183619361A361B3600063D
:10026000D8B477D0F5D7178E28D0179E12C016F0C5
:1002700012AE02D01B8E66D01B9E64D012C01BF043
:100280001B8E13C01AF014C019F016AE04D01B9EBA
:10029000178464D01794186A1590EA6A100EE96EF4
:1002A00070D016BE1CD00EC016F015A006D01B32A2
:1002B0001A3219321832002A4CE018AE0BD0192A23
:1002C00009E11A2A07E11B2A05E11B321A32193209
:1002D000002A3FE017BC86D717BEC7D71CD0800EB8
:1002E0001B1A1BAE04D03AD012C016F00AD00EC0B2
:1002F00016F01B5206E11A5204E1195202E1006A9B
:1003000021D01BBE08D0D890183619361A361B36A5
:10031000002EF7D71ED016AE02D01B8E13D01B9E18
:1003200011D011C000F012C01BF013C01AF014C09D
:1003300019F008D00DC000F00EC01BF00FC01AF06D
:1003400010C019F01BC001F01AC002F019C003F070
:1003500034D0006A016A026A036A2FD0186A191E33
:100360001A1E1B1E181E182A05E1192A03E11A2A53
:1003700001E11B2A17B015D717B256D717B48AD781
:10038000B3D7EF50192605E31A2A03E11B2AD8B484
:100390001580ED52EF501A2603E31B2AD8B41580BE
:1003A000ED52EF50EFBE01D0800A1B26D8B0158069
:1003B00017B8FED617BA3FD774D7B0EF04F01A506B
:1003C000D8B471D0006E1E50D8B46DD0002604E3AE
:1003D000810E002668E204D07F0E005E64E363E0D5
:1003E0001BC022F01F50221A1B8E1F8E1D5021028F
:1003F000F4CF24F01C502002F4CF03F0F3CF23F00D
:100400002102F3502426F4502322000E03221D5013
:100410002002F3502426F4502322000E026A032205
:1004200002221B502102F3502326F4500322000E17
:1004300002221B502002F3500326F4500222000E29
:10044000016A01221D501F02F3502326F45003229B
:10045000000E022201221C501F02F3500326F4500A
:100460000222000E01221B501F02F3500226F450FC
:100470000122002A01BE05D023360336023601369A
:100480000006000E23AE0AD0032A022201220150E8
:1004900005E1025003E1035001E1002A22BE018E72
:1004A00022AE019E04D0006A016A026A036A000C4F
:1004B0001150D8B4A5D01D6E1550D8B4A1D01D5E72
:1004C00005E37F0E1D26D8B09BD006D0810E1D5EA1
:1004D000D8A096D0D8B494D01DC000F0016A026AAA
:1004E000036A1C6A12C01BF01B8E13C01AF014C0E2
:1004F00019F0190E1D6E1850195E0DE2010E1A5EEC
:100500000AE21B5E08E21C5E06E21C2A1B2A1A2A6B
:100510001850192628D017501A5E12E2010E1B5EE1
:100520000FE21C5E0DE21C2A1B2A17501A261850D7
:10053000192619E31A2A17E11B2A15E11C2A13D0E0
:10054000165080091B5E0EE2010E1C5E0BE21C2A97
:10055000165080091B2617501A26E9E31B2AE7E1EB
:100560001C2AE5D703801D2E01D00BD0D890193658
:100570001A361B361C36D8900336023601361E3624
:10058000BAD71EA006D0D8900132023203321E32F2
:1005900002D0000635E01EBE1ED0D89019361A369D
:1005A0001B361C361850195E07E2010E1A5E04E273
:1005B0001B5E02E21C5E1AE317501A5E05E2010E92
:1005C0001B5E02E21C5E12E3165080091B5E03E212
:1005D000010E1C5E0BE3032A09E1022A07E1012A4E
:1005E00005E1002A0DE001320232033212C01DF093
:1005F00016501D1A1DAE02D0018E06D0019E04D0E9
:10060000006A016A026A036AD6EF04F01C2C01D06A
:1006100003D0C00E1D6E02D0800E1D6E010E1B5C3D
:100620001D261E6A1DC01FF026DD3AEF03F01A508A
:100630000C0A07E0060A0DE0070A0BE0050A0FE0C6
:1006400013D01E6A010E1F6E16DD020E206EE2DC54
:1006500011D0010E1B6E020E1C6ED8D70BD01E6A75
:10066000100E1F6E08DD06D0010E1E6E1AC01FF0A0
:1006700002DD00D0000C0900F6CF0EF0F7CF0FF02E
:10068000F5CF1AF0D4DF0EC0F6FF0FC0F7FF0D2E26
:10069000F2D7000C1A50B6081A6E036A1BC01EF07F
:1006A0001B8ED8901B321C321D32033202320132B3
:1006B00000321A2EF6D71EAE0BD0001E011E021EEF
:1006C000031E002AD8B4012AD8B4022AD8B4032AB7
:1006D000CEEF03F0006A016A026A036A226A236AA3
:1006E000246A256A215020101F101E102CE0200EB5
:1006F000266ED8901A361B361C361D362236233607
:10070000243625362150255C08E12050245C05E183
:100710001F50235C02E11E50225C0FE31E50225E3C
:100720001F50D8A01F3C235E2050D8A0203C245E40
:100730002150D8A0213C255ED880003601360236F3
:100740000336262ED6D7EA6A220EE96E000CE9504F
:10075000126E1150146E19E010C01DF00FC01CF085
:100760000EC01BF00DC01AF0216A206A200E1F6E09
:10077000820E1E6E24DE03C010F002C00FF001C016
:100780000EF000C00DF0142EE7D710C01DF00FC002
:100790001CF00EC01BF00DC01AF07CD703C010F087
:1007A00002C00FF001C00EF000C00DF010AE0DD071
:1007B0001206128A0D1E0E1E0F1E101E0D2AD8B410
:1007C0000E2AD8B40F2AD8B4102A3B0E196E9A0EEE
:1007D000186ECA0E176E166A0A0E146E1150D8B42F
:1007E000122A10C01DF00FC01CF00EC01BF00DC06F
:1007F0001AF019C021F018C020F017C01FF016C061
:100800001EF068DF0150EFCF0DF0ECCF0EF0ECCF13
:100810000FF0ECCF10F000520FE11128145C0CE047
:1008200012500CE00F0B145C01E037E212BE35D021
:1008300012BC04D0200E2DD0200E121612AA0CD0FD
:10084000129A1150D8A412060050126E2D0E1A6E74
:10085000EEDE1250006E126A1150145C0AE1005074
:10086000126E2E0E1A6EE3DE1250006E200E12165D
:10087000000E300E12AA0DD0129A1150D8A41206F2
:100880000050126E2D0E1A6ED2DE1250006E126AD9
:10089000300E002600C01AF0CADE19C01DF018C0C4
:1008A0001CF017C01BF016C01AF0216A206A1F6ADC
:1008B0000A0E1E6E0FDF03C019F002C018F001C04F
:1008C00017F000C016F0142E8CD7000CF86AD09EDA
:1008D000EA6AE96AC180C182C184C196086A076A6E
:1008E000066A056A0C6A0B6A0A6A096AC190C192B3
:1008F000C184C196C19CC28CC28EC19EC280080EAA
:10090000016EC250C70B0110C26E59EF00F0C80E45
:10091000206E0AEC00F0320E206E0AEC00F0C28469
:10092000C2B4FED7C4500E6A0D6E8DEF00F003C046
:1009300008F002C007F001C006F000C005F0D88240
:1009400008C010F007C00FF006C00EF005C00DF093
:10095000146A136A420E126E850E116EA9EF00F032
:100960001D6A1C6A600E1B6E820E1A6E03C021F097
:1009700002C020F001C01FF000C01EF020DD00C04A
:100980000DF001C00EF002C00FF003C010F003C064
:1009900014F002C013F001C012F000C011F0186A88
:1009A000176A1C0E166E850E156E82D503C00CF0EC
:1009B00002C00BF001C00AF000C009F0040EF66E90
:1009C000000EF76E050E0D6E56DE890EE96E08C03C
:1009D00010F007C00FF006C00EF005C00DF0020EBB
:1009E000116EB5DE0B0EF66E000EF76E050E0D6E77
:1009F00042DE890EE96E0CC010F00BC00FF00AC089
:100A00000EF009C00DF0020E116EA1DE040E0D6E87
:100A1000FA0E206E0AEC00F00D2EFAD77CD70300F8
:020000040030CA
:0E00000000220F0E000181000FC00FE00F4024
:00000001FF
;PIC18F452
;CRC=6572  CREATED="21-fev-11 14:10"
